:100000000C942A000C943F000C943F000C943F0089
:100010000C943F000C943F000C943F000C943F0064
:100020000C943F000C943F000C943F000C943F0054
:100030000C943F000C943F000C943F000C943F0044
:100040000C943F000C943F000C943F000C943F0034
:100050000C943F0011241FBECFE5D8E0DEBFCDBF1A
:1000600010E0A0E6B0E0EAE9F2E002C005900D92EF
:10007000A23AB107D9F70E940B010C944B010C94E2
:100080000000CF93DF9330E030C0E32FF0E0DF01DA
:10009000AA0FBB1FAA0FBB1FAC59BF4FAC91A43016
:1000A00040F5B0E0A05ABF4FCC91D0E0DE019E9168
:1000B000EE0FFF1FEE0FFF1FEC59FF4F8181282F1E
:1000C000209592239C934C919281582F5923452B34
:1000D0004C934881292B24232883288143819095A0
:1000E00094238923822B88833F5F393070F280E02C
:1000F00001C081E0DF91CF910895893060F5282F0C
:1001000030E0F901EE0FFF1FEE0FFF1FEC59FF4F1C
:10011000E081E43010F5220F331F220F331FD90185
:10012000AC59BF4F11969C91877070E002C0660F6A
:10013000771F8A95E2F7F0E0E05AFF4FE081F0E0A8
:100140008081292F20958223808380816923682BD9
:10015000608380E0089581E0089581E008951F9311
:10016000CF93DF93D82F162F823028F1693028F1F2
:1001700091E026C0ED2FF0E0EE0FFF1FEE0FFF1F06
:10018000EE0FFF1FEE56FF4FEC0FF11DA12FB0E059
:10019000A857BF4F6C9170E00C2E02C07595679503
:1001A0000A94E2F7617081810E947D00982F81306E
:1001B00039F0CF5F03C0C0E001C0C0E0C730D0F26B
:1001C000892FDF91CF911F910895823078F4E82F25
:1001D000F0E0EE0FFF1FEE0FFF1FEE0FFF1FEE56BA
:1001E000FF4F60E080810E947D00089581E00895C6
:1001F000823078F4E82FF0E0EE0FFF1FEE0FFF1FC4
:10020000EE0FFF1FEE56FF4F61E080810E947D00E0
:10021000089581E008950E94410000E039C0CDECCE
:100220000C9FC12D1124DC2FD695D695D695DD0FC8
:100230008D2F880F880FD80F802F8D1BD82F81E02E
:100240000E94F8006D2F80E00E94AF0080E00E94C5
:10025000E5008FE39CE90197F1F700C00000C69527
:10026000C695C69580E00E94F8006C2F81E00E9440
:10027000AF0081E00E94E5008FE39CE90197F1F770
:1002800000C000001F5F01C010E0143640F20F5F95
:0A0290000436D0F3C2CFF894FFCF7C
:10029A003B3835320001FF000002FF000004FF0076
:1002AA000008FF000010FF000020FF000040FF00D0
:1002BA000080FF000101FF003F065B4F666D7D076E
:1002CA007F6F000102030405060708010203040503
:0202DA00060715
:00000001FF
